:100000000C942A000C9434000C9434000C943400AA
:100010000C9434000C9434000C9434000C94340090
:100020000C9434000C9434000C9434000C94340080
:100030000C9434000C9434000C9434000C94340070
:100040000C9434000C9434000C9434000C94340060
:100050000C94340011241FBECFE5D8E0DEBFCDBF25
:100060000E944B000C9461000C9400008FEF8ABB3F
:100070001BBA08958FEF8ABB1BBA089588E893E1F5
:1000800029E130E0F9013197F1F70197D9F78BB306
:1000900080958BBB08958FEF8ABB1BBA28E833E1AC
:1000A00049E150E005C0CA010197F1F72150304005
:1000B00021153105C1F78BB380958BBB28E833E15F
:0600C000F2CFF894FFCF1F
:00000001FF
