:100000000C942A000C9434000C9434000C943400AA
:100010000C9434000C9434000C9434000C94340090
:100020000C9434000C9434000C9434000C94340080
:100030000C9434000C9434000C9434000C94340070
:100040000C9434000C9434000C9434000C94340060
:100050000C94340011241FBECFE5D8E0DEBFCDBF25
:100060000E944E000C9460000C9400008FEF8ABB3D
:100070001BBA08958FEF8ABB1BBA089528E833E1B5
:1000800049E150E0CA010197F1F721503040D1F722
:10009000EBE3F0E080818095808308950F931F93B8
:1000A000DF93CF930F92CDB7DEB7CE0101960E94BA
:1000B0003A008E010F5F1F4FC8010E943E00FCCF27
:0400C000F894FFCFE2
:00000001FF
